{
  "_format": "hh-sol-artifact-1",
  "contractName": "LW3Punks",
  "sourceName": "contracts/LW3Punks.sol",
  "abi": [
    {
      "inputs": [
        {
          "internalType": "string",
          "name": "baseURI",
          "type": "string"
        }
      ],
      "stateMutability": "nonpayable",
      "type": "constructor"
    },
    {
      "anonymous": false,
      "inputs": [
        {
          "indexed": true,
          "internalType": "address",
          "name": "owner",
          "type": "address"
        },
        {
          "indexed": true,
          "internalType": "address",
          "name": "approved",
          "type": "address"
        },
        {
          "indexed": true,
          "internalType": "uint256",
          "name": "tokenId",
          "type": "uint256"
        }
      ],
      "name": "Approval",
      "type": "event"
    },
    {
      "anonymous": false,
      "inputs": [
        {
          "indexed": true,
          "internalType": "address",
          "name": "owner",
          "type": "address"
        },
        {
          "indexed": true,
          "internalType": "address",
          "name": "operator",
          "type": "address"
        },
        {
          "indexed": false,
          "internalType": "bool",
          "name": "approved",
          "type": "bool"
        }
      ],
      "name": "ApprovalForAll",
      "type": "event"
    },
    {
      "anonymous": false,
      "inputs": [
        {
          "indexed": true,
          "internalType": "address",
          "name": "previousOwner",
          "type": "address"
        },
        {
          "indexed": true,
          "internalType": "address",
          "name": "newOwner",
          "type": "address"
        }
      ],
      "name": "OwnershipTransferred",
      "type": "event"
    },
    {
      "anonymous": false,
      "inputs": [
        {
          "indexed": true,
          "internalType": "address",
          "name": "from",
          "type": "address"
        },
        {
          "indexed": true,
          "internalType": "address",
          "name": "to",
          "type": "address"
        },
        {
          "indexed": true,
          "internalType": "uint256",
          "name": "tokenId",
          "type": "uint256"
        }
      ],
      "name": "Transfer",
      "type": "event"
    },
    {
      "stateMutability": "payable",
      "type": "fallback"
    },
    {
      "inputs": [],
      "name": "_paused",
      "outputs": [
        {
          "internalType": "bool",
          "name": "",
          "type": "bool"
        }
      ],
      "stateMutability": "view",
      "type": "function"
    },
    {
      "inputs": [],
      "name": "_price",
      "outputs": [
        {
          "internalType": "uint256",
          "name": "",
          "type": "uint256"
        }
      ],
      "stateMutability": "view",
      "type": "function"
    },
    {
      "inputs": [
        {
          "internalType": "address",
          "name": "to",
          "type": "address"
        },
        {
          "internalType": "uint256",
          "name": "tokenId",
          "type": "uint256"
        }
      ],
      "name": "approve",
      "outputs": [],
      "stateMutability": "nonpayable",
      "type": "function"
    },
    {
      "inputs": [
        {
          "internalType": "address",
          "name": "owner",
          "type": "address"
        }
      ],
      "name": "balanceOf",
      "outputs": [
        {
          "internalType": "uint256",
          "name": "",
          "type": "uint256"
        }
      ],
      "stateMutability": "view",
      "type": "function"
    },
    {
      "inputs": [
        {
          "internalType": "uint256",
          "name": "tokenId",
          "type": "uint256"
        }
      ],
      "name": "getApproved",
      "outputs": [
        {
          "internalType": "address",
          "name": "",
          "type": "address"
        }
      ],
      "stateMutability": "view",
      "type": "function"
    },
    {
      "inputs": [
        {
          "internalType": "address",
          "name": "owner",
          "type": "address"
        },
        {
          "internalType": "address",
          "name": "operator",
          "type": "address"
        }
      ],
      "name": "isApprovedForAll",
      "outputs": [
        {
          "internalType": "bool",
          "name": "",
          "type": "bool"
        }
      ],
      "stateMutability": "view",
      "type": "function"
    },
    {
      "inputs": [],
      "name": "maxTokenIds",
      "outputs": [
        {
          "internalType": "uint256",
          "name": "",
          "type": "uint256"
        }
      ],
      "stateMutability": "view",
      "type": "function"
    },
    {
      "inputs": [],
      "name": "mint",
      "outputs": [],
      "stateMutability": "payable",
      "type": "function"
    },
    {
      "inputs": [],
      "name": "name",
      "outputs": [
        {
          "internalType": "string",
          "name": "",
          "type": "string"
        }
      ],
      "stateMutability": "view",
      "type": "function"
    },
    {
      "inputs": [],
      "name": "owner",
      "outputs": [
        {
          "internalType": "address",
          "name": "",
          "type": "address"
        }
      ],
      "stateMutability": "view",
      "type": "function"
    },
    {
      "inputs": [
        {
          "internalType": "uint256",
          "name": "tokenId",
          "type": "uint256"
        }
      ],
      "name": "ownerOf",
      "outputs": [
        {
          "internalType": "address",
          "name": "",
          "type": "address"
        }
      ],
      "stateMutability": "view",
      "type": "function"
    },
    {
      "inputs": [],
      "name": "renounceOwnership",
      "outputs": [],
      "stateMutability": "nonpayable",
      "type": "function"
    },
    {
      "inputs": [
        {
          "internalType": "address",
          "name": "from",
          "type": "address"
        },
        {
          "internalType": "address",
          "name": "to",
          "type": "address"
        },
        {
          "internalType": "uint256",
          "name": "tokenId",
          "type": "uint256"
        }
      ],
      "name": "safeTransferFrom",
      "outputs": [],
      "stateMutability": "nonpayable",
      "type": "function"
    },
    {
      "inputs": [
        {
          "internalType": "address",
          "name": "from",
          "type": "address"
        },
        {
          "internalType": "address",
          "name": "to",
          "type": "address"
        },
        {
          "internalType": "uint256",
          "name": "tokenId",
          "type": "uint256"
        },
        {
          "internalType": "bytes",
          "name": "data",
          "type": "bytes"
        }
      ],
      "name": "safeTransferFrom",
      "outputs": [],
      "stateMutability": "nonpayable",
      "type": "function"
    },
    {
      "inputs": [
        {
          "internalType": "address",
          "name": "operator",
          "type": "address"
        },
        {
          "internalType": "bool",
          "name": "approved",
          "type": "bool"
        }
      ],
      "name": "setApprovalForAll",
      "outputs": [],
      "stateMutability": "nonpayable",
      "type": "function"
    },
    {
      "inputs": [
        {
          "internalType": "bool",
          "name": "val",
          "type": "bool"
        }
      ],
      "name": "setPaused",
      "outputs": [],
      "stateMutability": "nonpayable",
      "type": "function"
    },
    {
      "inputs": [
        {
          "internalType": "bytes4",
          "name": "interfaceId",
          "type": "bytes4"
        }
      ],
      "name": "supportsInterface",
      "outputs": [
        {
          "internalType": "bool",
          "name": "",
          "type": "bool"
        }
      ],
      "stateMutability": "view",
      "type": "function"
    },
    {
      "inputs": [],
      "name": "symbol",
      "outputs": [
        {
          "internalType": "string",
          "name": "",
          "type": "string"
        }
      ],
      "stateMutability": "view",
      "type": "function"
    },
    {
      "inputs": [
        {
          "internalType": "uint256",
          "name": "index",
          "type": "uint256"
        }
      ],
      "name": "tokenByIndex",
      "outputs": [
        {
          "internalType": "uint256",
          "name": "",
          "type": "uint256"
        }
      ],
      "stateMutability": "view",
      "type": "function"
    },
    {
      "inputs": [],
      "name": "tokenIds",
      "outputs": [
        {
          "internalType": "uint256",
          "name": "",
          "type": "uint256"
        }
      ],
      "stateMutability": "view",
      "type": "function"
    },
    {
      "inputs": [
        {
          "internalType": "address",
          "name": "owner",
          "type": "address"
        },
        {
          "internalType": "uint256",
          "name": "index",
          "type": "uint256"
        }
      ],
      "name": "tokenOfOwnerByIndex",
      "outputs": [
        {
          "internalType": "uint256",
          "name": "",
          "type": "uint256"
        }
      ],
      "stateMutability": "view",
      "type": "function"
    },
    {
      "inputs": [
        {
          "internalType": "uint256",
          "name": "tokenId",
          "type": "uint256"
        }
      ],
      "name": "tokenURI",
      "outputs": [
        {
          "internalType": "string",
          "name": "",
          "type": "string"
        }
      ],
      "stateMutability": "view",
      "type": "function"
    },
    {
      "inputs": [],
      "name": "totalSupply",
      "outputs": [
        {
          "internalType": "uint256",
          "name": "",
          "type": "uint256"
        }
      ],
      "stateMutability": "view",
      "type": "function"
    },
    {
      "inputs": [
        {
          "internalType": "address",
          "name": "from",
          "type": "address"
        },
        {
          "internalType": "address",
          "name": "to",
          "type": "address"
        },
        {
          "internalType": "uint256",
          "name": "tokenId",
          "type": "uint256"
        }
      ],
      "name": "transferFrom",
      "outputs": [],
      "stateMutability": "nonpayable",
      "type": "function"
    },
    {
      "inputs": [
        {
          "internalType": "address",
          "name": "newOwner",
          "type": "address"
        }
      ],
      "name": "transferOwnership",
      "outputs": [],
      "stateMutability": "nonpayable",
      "type": "function"
    },
    {
      "inputs": [],
      "name": "withdraw",
      "outputs": [],
      "stateMutability": "nonpayable",
      "type": "function"
    },
    {
      "stateMutability": "payable",
      "type": "receive"
    }
  ],
  "bytecode": "0x6080604052662386f26fc10000600c55600a600e553480156200002157600080fd5b506040516200408938038062004089833981810160405281019062000047919062000373565b6040518060400160405280600881526020017f4c573350756e6b730000000000000000000000000000000000000000000000008152506040518060400160405280600481526020017f4c573350000000000000000000000000000000000000000000000000000000008152508160009081620000c491906200060f565b508060019081620000d691906200060f565b505050620000f9620000ed6200011260201b60201c565b6200011a60201b60201c565b80600b90816200010a91906200060f565b5050620006f6565b600033905090565b6000600a60009054906101000a900473ffffffffffffffffffffffffffffffffffffffff16905081600a60006101000a81548173ffffffffffffffffffffffffffffffffffffffff021916908373ffffffffffffffffffffffffffffffffffffffff1602179055508173ffffffffffffffffffffffffffffffffffffffff168173ffffffffffffffffffffffffffffffffffffffff167f8be0079c531659141344cd1fd0a4f28419497f9722a3daafe3b4186f6b6457e060405160405180910390a35050565b6000604051905090565b600080fd5b600080fd5b600080fd5b600080fd5b6000601f19601f8301169050919050565b7f4e487b7100000000000000000000000000000000000000000000000000000000600052604160045260246000fd5b6200024982620001fe565b810181811067ffffffffffffffff821117156200026b576200026a6200020f565b5b80604052505050565b600062000280620001e0565b90506200028e82826200023e565b919050565b600067ffffffffffffffff821115620002b157620002b06200020f565b5b620002bc82620001fe565b9050602081019050919050565b60005b83811015620002e9578082015181840152602081019050620002cc565b60008484015250505050565b60006200030c620003068462000293565b62000274565b9050828152602081018484840111156200032b576200032a620001f9565b5b62000338848285620002c9565b509392505050565b600082601f830112620003585762000357620001f4565b5b81516200036a848260208601620002f5565b91505092915050565b6000602082840312156200038c576200038b620001ea565b5b600082015167ffffffffffffffff811115620003ad57620003ac620001ef565b5b620003bb8482850162000340565b91505092915050565b600081519050919050565b7f4e487b7100000000000000000000000000000000000000000000000000000000600052602260045260246000fd5b600060028204905060018216806200041757607f821691505b6020821081036200042d576200042c620003cf565b5b50919050565b60008190508160005260206000209050919050565b60006020601f8301049050919050565b600082821b905092915050565b600060088302620004977fffffffffffffffffffffffffffffffffffffffffffffffffffffffffffffffff8262000458565b620004a3868362000458565b95508019841693508086168417925050509392505050565b6000819050919050565b6000819050919050565b6000620004f0620004ea620004e484620004bb565b620004c5565b620004bb565b9050919050565b6000819050919050565b6200050c83620004cf565b620005246200051b82620004f7565b84845462000465565b825550505050565b600090565b6200053b6200052c565b6200054881848462000501565b505050565b5b8181101562000570576200056460008262000531565b6001810190506200054e565b5050565b601f821115620005bf57620005898162000433565b620005948462000448565b81016020851015620005a4578190505b620005bc620005b38562000448565b8301826200054d565b50505b505050565b600082821c905092915050565b6000620005e460001984600802620005c4565b1980831691505092915050565b6000620005ff8383620005d1565b9150826002028217905092915050565b6200061a82620003c4565b67ffffffffffffffff8111156200063657620006356200020f565b5b620006428254620003fe565b6200064f82828562000574565b600060209050601f83116001811462000687576000841562000672578287015190505b6200067e8582620005f1565b865550620006ee565b601f198416620006978662000433565b60005b82811015620006c1578489015182556001820191506020850194506020810190506200069a565b86831015620006e15784890151620006dd601f891682620005d1565b8355505b6001600288020188555050505b505050505050565b61398380620007066000396000f3fe6080604052600436106101855760003560e01c80634f6ccce7116100d15780638da5cb5b1161008a578063b88d4fde11610064578063b88d4fde14610559578063c87b56dd14610582578063e985e9c5146105bf578063f2fde38b146105fc5761018c565b80638da5cb5b146104da57806395d89b4114610505578063a22cb465146105305761018c565b80634f6ccce7146103b65780635f769621146103f35780636352211e1461041e57806370a082311461045b578063714cff5614610498578063715018a6146104c35761018c565b806316c61ccc1161013e57806323b872dd1161011857806323b872dd146103105780632f745c59146103395780633ccfd60b1461037657806342842e0e1461038d5761018c565b806316c61ccc1461028f57806318160ddd146102ba578063235b6ea1146102e55761018c565b806301ffc9a71461018e57806306fdde03146101cb578063081812fc146101f6578063095ea7b3146102335780631249c58b1461025c57806316c38b3c146102665761018c565b3661018c57005b005b34801561019a57600080fd5b506101b560048036038101906101b091906125ca565b610625565b6040516101c29190612612565b60405180910390f35b3480156101d757600080fd5b506101e061069f565b6040516101ed91906126bd565b60405180910390f35b34801561020257600080fd5b5061021d60048036038101906102189190612715565b610731565b60405161022a9190612783565b60405180910390f35b34801561023f57600080fd5b5061025a600480360381019061025591906127ca565b610777565b005b61026461088e565b005b34801561027257600080fd5b5061028d60048036038101906102889190612836565b610991565b005b34801561029b57600080fd5b506102a46109b6565b6040516102b19190612612565b60405180910390f35b3480156102c657600080fd5b506102cf6109c9565b6040516102dc9190612872565b60405180910390f35b3480156102f157600080fd5b506102fa6109d6565b6040516103079190612872565b60405180910390f35b34801561031c57600080fd5b506103376004803603810190610332919061288d565b6109dc565b005b34801561034557600080fd5b50610360600480360381019061035b91906127ca565b610a3c565b60405161036d9190612872565b60405180910390f35b34801561038257600080fd5b5061038b610ae1565b005b34801561039957600080fd5b506103b460048036038101906103af919061288d565b610bab565b005b3480156103c257600080fd5b506103dd60048036038101906103d89190612715565b610bcb565b6040516103ea9190612872565b60405180910390f35b3480156103ff57600080fd5b50610408610c3c565b6040516104159190612872565b60405180910390f35b34801561042a57600080fd5b5061044560048036038101906104409190612715565b610c42565b6040516104529190612783565b60405180910390f35b34801561046757600080fd5b50610482600480360381019061047d91906128e0565b610cc8565b60405161048f9190612872565b60405180910390f35b3480156104a457600080fd5b506104ad610d7f565b6040516104ba9190612872565b60405180910390f35b3480156104cf57600080fd5b506104d8610d85565b005b3480156104e657600080fd5b506104ef610d99565b6040516104fc9190612783565b60405180910390f35b34801561051157600080fd5b5061051a610dc3565b60405161052791906126bd565b60405180910390f35b34801561053c57600080fd5b506105576004803603810190610552919061290d565b610e55565b005b34801561056557600080fd5b50610580600480360381019061057b9190612a82565b610e6b565b005b34801561058e57600080fd5b506105a960048036038101906105a49190612715565b610ecd565b6040516105b691906126bd565b60405180910390f35b3480156105cb57600080fd5b506105e660048036038101906105e19190612b05565b610f74565b6040516105f39190612612565b60405180910390f35b34801561060857600080fd5b50610623600480360381019061061e91906128e0565b611008565b005b60007f780e9d63000000000000000000000000000000000000000000000000000000007bffffffffffffffffffffffffffffffffffffffffffffffffffffffff1916827bffffffffffffffffffffffffffffffffffffffffffffffffffffffff1916148061069857506106978261108b565b5b9050919050565b6060600080546106ae90612b74565b80601f01602080910402602001604051908101604052809291908181526020018280546106da90612b74565b80156107275780601f106106fc57610100808354040283529160200191610727565b820191906000526020600020905b81548152906001019060200180831161070a57829003601f168201915b5050505050905090565b600061073c8261116d565b6004600083815260200190815260200160002060009054906101000a900473ffffffffffffffffffffffffffffffffffffffff169050919050565b600061078282610c42565b90508073ffffffffffffffffffffffffffffffffffffffff168373ffffffffffffffffffffffffffffffffffffffff16036107f2576040517f08c379a00000000000000000000000000000000000000000000000000000000081526004016107e990612c17565b60405180910390fd5b8073ffffffffffffffffffffffffffffffffffffffff166108116111b8565b73ffffffffffffffffffffffffffffffffffffffff161480610840575061083f8161083a6111b8565b610f74565b5b61087f576040517f08c379a000000000000000000000000000000000000000000000000000000000815260040161087690612ca9565b60405180910390fd5b61088983836111c0565b505050565b600d60009054906101000a900460ff16156108de576040517f08c379a00000000000000000000000000000000000000000000000000000000081526004016108d590612d15565b60405180910390fd5b600e54600f5410610924576040517f08c379a000000000000000000000000000000000000000000000000000000000815260040161091b90612d81565b60405180910390fd5b600c54341015610969576040517f08c379a000000000000000000000000000000000000000000000000000000000815260040161096090612ded565b60405180910390fd5b6001600f600082825461097c9190612e3c565b9250508190555061098f33600f54611279565b565b610999611297565b80600d60006101000a81548160ff02191690831515021790555050565b600d60009054906101000a900460ff1681565b6000600880549050905090565b600c5481565b6109ed6109e76111b8565b82611315565b610a2c576040517f08c379a0000000000000000000000000000000000000000000000000000000008152600401610a2390612ee2565b60405180910390fd5b610a378383836113aa565b505050565b6000610a4783610cc8565b8210610a88576040517f08c379a0000000000000000000000000000000000000000000000000000000008152600401610a7f90612f74565b60405180910390fd5b600660008473ffffffffffffffffffffffffffffffffffffffff1673ffffffffffffffffffffffffffffffffffffffff168152602001908152602001600020600083815260200190815260200160002054905092915050565b610ae9611297565b6000610af3610d99565b9050600047905060008273ffffffffffffffffffffffffffffffffffffffff1682604051610b2090612fc5565b60006040518083038185875af1925050503d8060008114610b5d576040519150601f19603f3d011682016040523d82523d6000602084013e610b62565b606091505b5050905080610ba6576040517f08c379a0000000000000000000000000000000000000000000000000000000008152600401610b9d90613026565b60405180910390fd5b505050565b610bc683838360405180602001604052806000815250610e6b565b505050565b6000610bd56109c9565b8210610c16576040517f08c379a0000000000000000000000000000000000000000000000000000000008152600401610c0d906130b8565b60405180910390fd5b60088281548110610c2a57610c296130d8565b5b90600052602060002001549050919050565b600e5481565b600080610c4e836116a3565b9050600073ffffffffffffffffffffffffffffffffffffffff168173ffffffffffffffffffffffffffffffffffffffff1603610cbf576040517f08c379a0000000000000000000000000000000000000000000000000000000008152600401610cb690613153565b60405180910390fd5b80915050919050565b60008073ffffffffffffffffffffffffffffffffffffffff168273ffffffffffffffffffffffffffffffffffffffff1603610d38576040517f08c379a0000000000000000000000000000000000000000000000000000000008152600401610d2f906131e5565b60405180910390fd5b600360008373ffffffffffffffffffffffffffffffffffffffff1673ffffffffffffffffffffffffffffffffffffffff168152602001908152602001600020549050919050565b600f5481565b610d8d611297565b610d9760006116e0565b565b6000600a60009054906101000a900473ffffffffffffffffffffffffffffffffffffffff16905090565b606060018054610dd290612b74565b80601f0160208091040260200160405190810160405280929190818152602001828054610dfe90612b74565b8015610e4b5780601f10610e2057610100808354040283529160200191610e4b565b820191906000526020600020905b815481529060010190602001808311610e2e57829003601f168201915b5050505050905090565b610e67610e606111b8565b83836117a6565b5050565b610e7c610e766111b8565b83611315565b610ebb576040517f08c379a0000000000000000000000000000000000000000000000000000000008152600401610eb290612ee2565b60405180910390fd5b610ec784848484611912565b50505050565b6060610ed88261196e565b610f17576040517f08c379a0000000000000000000000000000000000000000000000000000000008152600401610f0e90613277565b60405180910390fd5b6000610f216119af565b90506000815111610f415760405180602001604052806000815250610f6c565b80610f4b84611a41565b604051602001610f5c92919061331f565b6040516020818303038152906040525b915050919050565b6000600560008473ffffffffffffffffffffffffffffffffffffffff1673ffffffffffffffffffffffffffffffffffffffff16815260200190815260200160002060008373ffffffffffffffffffffffffffffffffffffffff1673ffffffffffffffffffffffffffffffffffffffff16815260200190815260200160002060009054906101000a900460ff16905092915050565b611010611297565b600073ffffffffffffffffffffffffffffffffffffffff168173ffffffffffffffffffffffffffffffffffffffff160361107f576040517f08c379a0000000000000000000000000000000000000000000000000000000008152600401611076906133c0565b60405180910390fd5b611088816116e0565b50565b60007f80ac58cd000000000000000000000000000000000000000000000000000000007bffffffffffffffffffffffffffffffffffffffffffffffffffffffff1916827bffffffffffffffffffffffffffffffffffffffffffffffffffffffff1916148061115657507f5b5e139f000000000000000000000000000000000000000000000000000000007bffffffffffffffffffffffffffffffffffffffffffffffffffffffff1916827bffffffffffffffffffffffffffffffffffffffffffffffffffffffff1916145b80611166575061116582611b0f565b5b9050919050565b6111768161196e565b6111b5576040517f08c379a00000000000000000000000000000000000000000000000000000000081526004016111ac90613153565b60405180910390fd5b50565b600033905090565b816004600083815260200190815260200160002060006101000a81548173ffffffffffffffffffffffffffffffffffffffff021916908373ffffffffffffffffffffffffffffffffffffffff160217905550808273ffffffffffffffffffffffffffffffffffffffff1661123383610c42565b73ffffffffffffffffffffffffffffffffffffffff167f8c5be1e5ebec7d5bd14f71427d1e84f3dd0314c0f7b2291e5b200ac8c7c3b92560405160405180910390a45050565b611293828260405180602001604052806000815250611b79565b5050565b61129f6111b8565b73ffffffffffffffffffffffffffffffffffffffff166112bd610d99565b73ffffffffffffffffffffffffffffffffffffffff1614611313576040517f08c379a000000000000000000000000000000000000000000000000000000000815260040161130a9061342c565b60405180910390fd5b565b60008061132183610c42565b90508073ffffffffffffffffffffffffffffffffffffffff168473ffffffffffffffffffffffffffffffffffffffff16148061136357506113628185610f74565b5b806113a157508373ffffffffffffffffffffffffffffffffffffffff1661138984610731565b73ffffffffffffffffffffffffffffffffffffffff16145b91505092915050565b8273ffffffffffffffffffffffffffffffffffffffff166113ca82610c42565b73ffffffffffffffffffffffffffffffffffffffff1614611420576040517f08c379a0000000000000000000000000000000000000000000000000000000008152600401611417906134be565b60405180910390fd5b600073ffffffffffffffffffffffffffffffffffffffff168273ffffffffffffffffffffffffffffffffffffffff160361148f576040517f08c379a000000000000000000000000000000000000000000000000000000000815260040161148690613550565b60405180910390fd5b61149c8383836001611bd4565b8273ffffffffffffffffffffffffffffffffffffffff166114bc82610c42565b73ffffffffffffffffffffffffffffffffffffffff1614611512576040517f08c379a0000000000000000000000000000000000000000000000000000000008152600401611509906134be565b60405180910390fd5b6004600082815260200190815260200160002060006101000a81549073ffffffffffffffffffffffffffffffffffffffff02191690556001600360008573ffffffffffffffffffffffffffffffffffffffff1673ffffffffffffffffffffffffffffffffffffffff168152602001908152602001600020600082825403925050819055506001600360008473ffffffffffffffffffffffffffffffffffffffff1673ffffffffffffffffffffffffffffffffffffffff16815260200190815260200160002060008282540192505081905550816002600083815260200190815260200160002060006101000a81548173ffffffffffffffffffffffffffffffffffffffff021916908373ffffffffffffffffffffffffffffffffffffffff160217905550808273ffffffffffffffffffffffffffffffffffffffff168473ffffffffffffffffffffffffffffffffffffffff167fddf252ad1be2c89b69c2b068fc378daa952ba7f163c4a11628f55a4df523b3ef60405160405180910390a461169e8383836001611d32565b505050565b60006002600083815260200190815260200160002060009054906101000a900473ffffffffffffffffffffffffffffffffffffffff169050919050565b6000600a60009054906101000a900473ffffffffffffffffffffffffffffffffffffffff16905081600a60006101000a81548173ffffffffffffffffffffffffffffffffffffffff021916908373ffffffffffffffffffffffffffffffffffffffff1602179055508173ffffffffffffffffffffffffffffffffffffffff168173ffffffffffffffffffffffffffffffffffffffff167f8be0079c531659141344cd1fd0a4f28419497f9722a3daafe3b4186f6b6457e060405160405180910390a35050565b8173ffffffffffffffffffffffffffffffffffffffff168373ffffffffffffffffffffffffffffffffffffffff1603611814576040517f08c379a000000000000000000000000000000000000000000000000000000000815260040161180b906135bc565b60405180910390fd5b80600560008573ffffffffffffffffffffffffffffffffffffffff1673ffffffffffffffffffffffffffffffffffffffff16815260200190815260200160002060008473ffffffffffffffffffffffffffffffffffffffff1673ffffffffffffffffffffffffffffffffffffffff16815260200190815260200160002060006101000a81548160ff0219169083151502179055508173ffffffffffffffffffffffffffffffffffffffff168373ffffffffffffffffffffffffffffffffffffffff167f17307eab39ab6107e8899845ad3d59bd9653f200f220920489ca2b5937696c31836040516119059190612612565b60405180910390a3505050565b61191d8484846113aa565b61192984848484611d38565b611968576040517f08c379a000000000000000000000000000000000000000000000000000000000815260040161195f9061364e565b60405180910390fd5b50505050565b60008073ffffffffffffffffffffffffffffffffffffffff16611990836116a3565b73ffffffffffffffffffffffffffffffffffffffff1614159050919050565b6060600b80546119be90612b74565b80601f01602080910402602001604051908101604052809291908181526020018280546119ea90612b74565b8015611a375780601f10611a0c57610100808354040283529160200191611a37565b820191906000526020600020905b815481529060010190602001808311611a1a57829003601f168201915b5050505050905090565b606060006001611a5084611ebf565b01905060008167ffffffffffffffff811115611a6f57611a6e612957565b5b6040519080825280601f01601f191660200182016040528015611aa15781602001600182028036833780820191505090505b509050600082602001820190505b600115611b04578080600190039150507f3031323334353637383961626364656600000000000000000000000000000000600a86061a8153600a8581611af857611af761366e565b5b04945060008503611aaf575b819350505050919050565b60007f01ffc9a7000000000000000000000000000000000000000000000000000000007bffffffffffffffffffffffffffffffffffffffffffffffffffffffff1916827bffffffffffffffffffffffffffffffffffffffffffffffffffffffff1916149050919050565b611b838383612012565b611b906000848484611d38565b611bcf576040517f08c379a0000000000000000000000000000000000000000000000000000000008152600401611bc69061364e565b60405180910390fd5b505050565b611be08484848461222f565b6001811115611c24576040517f08c379a0000000000000000000000000000000000000000000000000000000008152600401611c1b9061370f565b60405180910390fd5b6000829050600073ffffffffffffffffffffffffffffffffffffffff168573ffffffffffffffffffffffffffffffffffffffff1603611c6b57611c6681612235565b611caa565b8373ffffffffffffffffffffffffffffffffffffffff168573ffffffffffffffffffffffffffffffffffffffff1614611ca957611ca8858261227e565b5b5b600073ffffffffffffffffffffffffffffffffffffffff168473ffffffffffffffffffffffffffffffffffffffff1603611cec57611ce7816123eb565b611d2b565b8473ffffffffffffffffffffffffffffffffffffffff168473ffffffffffffffffffffffffffffffffffffffff1614611d2a57611d2984826124bc565b5b5b5050505050565b50505050565b6000611d598473ffffffffffffffffffffffffffffffffffffffff1661253b565b15611eb2578373ffffffffffffffffffffffffffffffffffffffff1663150b7a02611d826111b8565b8786866040518563ffffffff1660e01b8152600401611da49493929190613784565b6020604051808303816000875af1925050508015611de057506040513d601f19601f82011682018060405250810190611ddd91906137e5565b60015b611e62573d8060008114611e10576040519150601f19603f3d011682016040523d82523d6000602084013e611e15565b606091505b506000815103611e5a576040517f08c379a0000000000000000000000000000000000000000000000000000000008152600401611e519061364e565b60405180910390fd5b805181602001fd5b63150b7a0260e01b7bffffffffffffffffffffffffffffffffffffffffffffffffffffffff1916817bffffffffffffffffffffffffffffffffffffffffffffffffffffffff191614915050611eb7565b600190505b949350505050565b600080600090507a184f03e93ff9f4daa797ed6e38ed64bf6a1f0100000000000000008310611f1d577a184f03e93ff9f4daa797ed6e38ed64bf6a1f0100000000000000008381611f1357611f1261366e565b5b0492506040810190505b6d04ee2d6d415b85acef81000000008310611f5a576d04ee2d6d415b85acef81000000008381611f5057611f4f61366e565b5b0492506020810190505b662386f26fc100008310611f8957662386f26fc100008381611f7f57611f7e61366e565b5b0492506010810190505b6305f5e1008310611fb2576305f5e1008381611fa857611fa761366e565b5b0492506008810190505b6127108310611fd7576127108381611fcd57611fcc61366e565b5b0492506004810190505b60648310611ffa5760648381611ff057611fef61366e565b5b0492506002810190505b600a8310612009576001810190505b80915050919050565b600073ffffffffffffffffffffffffffffffffffffffff168273ffffffffffffffffffffffffffffffffffffffff1603612081576040517f08c379a00000000000000000000000000000000000000000000000000000000081526004016120789061385e565b60405180910390fd5b61208a8161196e565b156120ca576040517f08c379a00000000000000000000000000000000000000000000000000000000081526004016120c1906138ca565b60405180910390fd5b6120d8600083836001611bd4565b6120e18161196e565b15612121576040517f08c379a0000000000000000000000000000000000000000000000000000000008152600401612118906138ca565b60405180910390fd5b6001600360008473ffffffffffffffffffffffffffffffffffffffff1673ffffffffffffffffffffffffffffffffffffffff16815260200190815260200160002060008282540192505081905550816002600083815260200190815260200160002060006101000a81548173ffffffffffffffffffffffffffffffffffffffff021916908373ffffffffffffffffffffffffffffffffffffffff160217905550808273ffffffffffffffffffffffffffffffffffffffff16600073ffffffffffffffffffffffffffffffffffffffff167fddf252ad1be2c89b69c2b068fc378daa952ba7f163c4a11628f55a4df523b3ef60405160405180910390a461222b600083836001611d32565b5050565b50505050565b6008805490506009600083815260200190815260200160002081905550600881908060018154018082558091505060019003906000526020600020016000909190919091505550565b6000600161228b84610cc8565b61229591906138ea565b905060006007600084815260200190815260200160002054905081811461237a576000600660008673ffffffffffffffffffffffffffffffffffffffff1673ffffffffffffffffffffffffffffffffffffffff168152602001908152602001600020600084815260200190815260200160002054905080600660008773ffffffffffffffffffffffffffffffffffffffff1673ffffffffffffffffffffffffffffffffffffffff168152602001908152602001600020600084815260200190815260200160002081905550816007600083815260200190815260200160002081905550505b6007600084815260200190815260200160002060009055600660008573ffffffffffffffffffffffffffffffffffffffff1673ffffffffffffffffffffffffffffffffffffffff16815260200190815260200160002060008381526020019081526020016000206000905550505050565b600060016008805490506123ff91906138ea565b905060006009600084815260200190815260200160002054905060006008838154811061242f5761242e6130d8565b5b906000526020600020015490508060088381548110612451576124506130d8565b5b9060005260206000200181905550816009600083815260200190815260200160002081905550600960008581526020019081526020016000206000905560088054806124a05761249f61391e565b5b6001900381819060005260206000200160009055905550505050565b60006124c783610cc8565b905081600660008573ffffffffffffffffffffffffffffffffffffffff1673ffffffffffffffffffffffffffffffffffffffff168152602001908152602001600020600083815260200190815260200160002081905550806007600084815260200190815260200160002081905550505050565b6000808273ffffffffffffffffffffffffffffffffffffffff163b119050919050565b6000604051905090565b600080fd5b600080fd5b60007fffffffff0000000000000000000000000000000000000000000000000000000082169050919050565b6125a781612572565b81146125b257600080fd5b50565b6000813590506125c48161259e565b92915050565b6000602082840312156125e0576125df612568565b5b60006125ee848285016125b5565b91505092915050565b60008115159050919050565b61260c816125f7565b82525050565b60006020820190506126276000830184612603565b92915050565b600081519050919050565b600082825260208201905092915050565b60005b8381101561266757808201518184015260208101905061264c565b60008484015250505050565b6000601f19601f8301169050919050565b600061268f8261262d565b6126998185612638565b93506126a9818560208601612649565b6126b281612673565b840191505092915050565b600060208201905081810360008301526126d78184612684565b905092915050565b6000819050919050565b6126f2816126df565b81146126fd57600080fd5b50565b60008135905061270f816126e9565b92915050565b60006020828403121561272b5761272a612568565b5b600061273984828501612700565b91505092915050565b600073ffffffffffffffffffffffffffffffffffffffff82169050919050565b600061276d82612742565b9050919050565b61277d81612762565b82525050565b60006020820190506127986000830184612774565b92915050565b6127a781612762565b81146127b257600080fd5b50565b6000813590506127c48161279e565b92915050565b600080604083850312156127e1576127e0612568565b5b60006127ef858286016127b5565b925050602061280085828601612700565b9150509250929050565b612813816125f7565b811461281e57600080fd5b50565b6000813590506128308161280a565b92915050565b60006020828403121561284c5761284b612568565b5b600061285a84828501612821565b91505092915050565b61286c816126df565b82525050565b60006020820190506128876000830184612863565b92915050565b6000806000606084860312156128a6576128a5612568565b5b60006128b4868287016127b5565b93505060206128c5868287016127b5565b92505060406128d686828701612700565b9150509250925092565b6000602082840312156128f6576128f5612568565b5b6000612904848285016127b5565b91505092915050565b6000806040838503121561292457612923612568565b5b6000612932858286016127b5565b925050602061294385828601612821565b9150509250929050565b600080fd5b600080fd5b7f4e487b7100000000000000000000000000000000000000000000000000000000600052604160045260246000fd5b61298f82612673565b810181811067ffffffffffffffff821117156129ae576129ad612957565b5b80604052505050565b60006129c161255e565b90506129cd8282612986565b919050565b600067ffffffffffffffff8211156129ed576129ec612957565b5b6129f682612673565b9050602081019050919050565b82818337600083830152505050565b6000612a25612a20846129d2565b6129b7565b905082815260208101848484011115612a4157612a40612952565b5b612a4c848285612a03565b509392505050565b600082601f830112612a6957612a6861294d565b5b8135612a79848260208601612a12565b91505092915050565b60008060008060808587031215612a9c57612a9b612568565b5b6000612aaa878288016127b5565b9450506020612abb878288016127b5565b9350506040612acc87828801612700565b925050606085013567ffffffffffffffff811115612aed57612aec61256d565b5b612af987828801612a54565b91505092959194509250565b60008060408385031215612b1c57612b1b612568565b5b6000612b2a858286016127b5565b9250506020612b3b858286016127b5565b9150509250929050565b7f4e487b7100000000000000000000000000000000000000000000000000000000600052602260045260246000fd5b60006002820490506001821680612b8c57607f821691505b602082108103612b9f57612b9e612b45565b5b50919050565b7f4552433732313a20617070726f76616c20746f2063757272656e74206f776e6560008201527f7200000000000000000000000000000000000000000000000000000000000000602082015250565b6000612c01602183612638565b9150612c0c82612ba5565b604082019050919050565b60006020820190508181036000830152612c3081612bf4565b9050919050565b7f4552433732313a20617070726f76652063616c6c6572206973206e6f7420746f60008201527f6b656e206f776e6572206f7220617070726f76656420666f7220616c6c000000602082015250565b6000612c93603d83612638565b9150612c9e82612c37565b604082019050919050565b60006020820190508181036000830152612cc281612c86565b9050919050565b7f436f6e74726163742063757272656e746c792070617573656400000000000000600082015250565b6000612cff601983612638565b9150612d0a82612cc9565b602082019050919050565b60006020820190508181036000830152612d2e81612cf2565b9050919050565b7f457863656564206d6178696d756d204c573350756e6b7320737570706c790000600082015250565b6000612d6b601e83612638565b9150612d7682612d35565b602082019050919050565b60006020820190508181036000830152612d9a81612d5e565b9050919050565b7f45746865722073656e74206973206e6f7420636f727265637400000000000000600082015250565b6000612dd7601983612638565b9150612de282612da1565b602082019050919050565b60006020820190508181036000830152612e0681612dca565b9050919050565b7f4e487b7100000000000000000000000000000000000000000000000000000000600052601160045260246000fd5b6000612e47826126df565b9150612e52836126df565b9250828201905080821115612e6a57612e69612e0d565b5b92915050565b7f4552433732313a2063616c6c6572206973206e6f7420746f6b656e206f776e6560008201527f72206f7220617070726f76656400000000000000000000000000000000000000602082015250565b6000612ecc602d83612638565b9150612ed782612e70565b604082019050919050565b60006020820190508181036000830152612efb81612ebf565b9050919050565b7f455243373231456e756d657261626c653a206f776e657220696e646578206f7560008201527f74206f6620626f756e6473000000000000000000000000000000000000000000602082015250565b6000612f5e602b83612638565b9150612f6982612f02565b604082019050919050565b60006020820190508181036000830152612f8d81612f51565b9050919050565b600081905092915050565b50565b6000612faf600083612f94565b9150612fba82612f9f565b600082019050919050565b6000612fd082612fa2565b9150819050919050565b7f4661696c656420746f2073656e64204574686572000000000000000000000000600082015250565b6000613010601483612638565b915061301b82612fda565b602082019050919050565b6000602082019050818103600083015261303f81613003565b9050919050565b7f455243373231456e756d657261626c653a20676c6f62616c20696e646578206f60008201527f7574206f6620626f756e64730000000000000000000000000000000000000000602082015250565b60006130a2602c83612638565b91506130ad82613046565b604082019050919050565b600060208201905081810360008301526130d181613095565b9050919050565b7f4e487b7100000000000000000000000000000000000000000000000000000000600052603260045260246000fd5b7f4552433732313a20696e76616c696420746f6b656e2049440000000000000000600082015250565b600061313d601883612638565b915061314882613107565b602082019050919050565b6000602082019050818103600083015261316c81613130565b9050919050565b7f4552433732313a2061646472657373207a65726f206973206e6f74206120766160008201527f6c6964206f776e65720000000000000000000000000000000000000000000000602082015250565b60006131cf602983612638565b91506131da82613173565b604082019050919050565b600060208201905081810360008301526131fe816131c2565b9050919050565b7f4552433732314d657461646174613a2055524920717565727920666f72206e6f60008201527f6e6578697374656e7420746f6b656e0000000000000000000000000000000000602082015250565b6000613261602f83612638565b915061326c82613205565b604082019050919050565b6000602082019050818103600083015261329081613254565b9050919050565b600081905092915050565b60006132ad8261262d565b6132b78185613297565b93506132c7818560208601612649565b80840191505092915050565b7f2e6a736f6e000000000000000000000000000000000000000000000000000000600082015250565b6000613309600583613297565b9150613314826132d3565b600582019050919050565b600061332b82856132a2565b915061333782846132a2565b9150613342826132fc565b91508190509392505050565b7f4f776e61626c653a206e6577206f776e657220697320746865207a65726f206160008201527f6464726573730000000000000000000000000000000000000000000000000000602082015250565b60006133aa602683612638565b91506133b58261334e565b604082019050919050565b600060208201905081810360008301526133d98161339d565b9050919050565b7f4f776e61626c653a2063616c6c6572206973206e6f7420746865206f776e6572600082015250565b6000613416602083612638565b9150613421826133e0565b602082019050919050565b6000602082019050818103600083015261344581613409565b9050919050565b7f4552433732313a207472616e736665722066726f6d20696e636f72726563742060008201527f6f776e6572000000000000000000000000000000000000000000000000000000602082015250565b60006134a8602583612638565b91506134b38261344c565b604082019050919050565b600060208201905081810360008301526134d78161349b565b9050919050565b7f4552433732313a207472616e7366657220746f20746865207a65726f2061646460008201527f7265737300000000000000000000000000000000000000000000000000000000602082015250565b600061353a602483612638565b9150613545826134de565b604082019050919050565b600060208201905081810360008301526135698161352d565b9050919050565b7f4552433732313a20617070726f766520746f2063616c6c657200000000000000600082015250565b60006135a6601983612638565b91506135b182613570565b602082019050919050565b600060208201905081810360008301526135d581613599565b9050919050565b7f4552433732313a207472616e7366657220746f206e6f6e20455243373231526560008201527f63656976657220696d706c656d656e7465720000000000000000000000000000602082015250565b6000613638603283612638565b9150613643826135dc565b604082019050919050565b600060208201905081810360008301526136678161362b565b9050919050565b7f4e487b7100000000000000000000000000000000000000000000000000000000600052601260045260246000fd5b7f455243373231456e756d657261626c653a20636f6e736563757469766520747260008201527f616e7366657273206e6f7420737570706f727465640000000000000000000000602082015250565b60006136f9603583612638565b91506137048261369d565b604082019050919050565b60006020820190508181036000830152613728816136ec565b9050919050565b600081519050919050565b600082825260208201905092915050565b60006137568261372f565b613760818561373a565b9350613770818560208601612649565b61377981612673565b840191505092915050565b60006080820190506137996000830187612774565b6137a66020830186612774565b6137b36040830185612863565b81810360608301526137c5818461374b565b905095945050505050565b6000815190506137df8161259e565b92915050565b6000602082840312156137fb576137fa612568565b5b6000613809848285016137d0565b91505092915050565b7f4552433732313a206d696e7420746f20746865207a65726f2061646472657373600082015250565b6000613848602083612638565b915061385382613812565b602082019050919050565b600060208201905081810360008301526138778161383b565b9050919050565b7f4552433732313a20746f6b656e20616c7265616479206d696e74656400000000600082015250565b60006138b4601c83612638565b91506138bf8261387e565b602082019050919050565b600060208201905081810360008301526138e3816138a7565b9050919050565b60006138f5826126df565b9150613900836126df565b925082820390508181111561391857613917612e0d565b5b92915050565b7f4e487b7100000000000000000000000000000000000000000000000000000000600052603160045260246000fdfea264697066735822122073136a2f1c40607f5b8b8d6c38200bc1b949c9ffa709d4283fc6eb1c98c2fc4964736f6c63430008130033",
  "linkReferences": {},
  "deployedLinkReferences": {}
}